{
  "_format": "hh-sol-artifact-1",
  "contractName": "Incrementer",
  "sourceName": "contracts/Incrementer.sol",
  "abi": [
    {
      "inputs": [],
      "name": "increment",
      "outputs": [],
      "stateMutability": "nonpayable",
      "type": "function"
    },
    {
      "inputs": [],
      "name": "number",
      "outputs": [
        {
          "internalType": "uint256",
          "name": "",
          "type": "uint256"
        }
      ],
      "stateMutability": "view",
      "type": "function"
    },
    {
      "inputs": [],
      "name": "timestamp",
      "outputs": [
        {
          "internalType": "uint256",
          "name": "",
          "type": "uint256"
        }
      ],
      "stateMutability": "view",
      "type": "function"
    }
  ],
  "bytecode": "0x608060405234801561001057600080fd5b50610199806100206000396000f3fe608060405234801561001057600080fd5b50600436106100415760003560e01c80638381f58a14610046578063b80777ea14610064578063d09de08a14610082575b600080fd5b61004e61008c565b60405161005b91906100d1565b60405180910390f35b61006c610092565b60405161007991906100d1565b60405180910390f35b61008a610098565b005b60005481565b60015481565b6000808154809291906100aa9061011b565b919050555042600181905550565b6000819050919050565b6100cb816100b8565b82525050565b60006020820190506100e660008301846100c2565b92915050565b7f4e487b7100000000000000000000000000000000000000000000000000000000600052601160045260246000fd5b6000610126826100b8565b91507fffffffffffffffffffffffffffffffffffffffffffffffffffffffffffffffff8203610158576101576100ec565b5b60018201905091905056fea26469706673582212204d216fffba947ff07505980ea735f7f1cfa685b73ca93f375e6b37ee119452b264736f6c63430008120033",
  "linkReferences": {},
  "deployedLinkReferences": {}
}